:020000041000EA
:10000000002008205D0100101301001015010010F0
:100010001101001011010010110100101101001058
:100020001101001011010010110100101701001042
:100030001101001011010010190100101B01001026
:100040001D0100101D0100101D0100101D010010F8
:100050001D0100101D0100101D0100101D010010E8
:100060001D0100101D0100101D0100101D010010D8
:100070001D0100101D0100101D0100101D010010C8
:100080001D0100101D0100101D0100101D010010B8
:100090001D0100101D0100101D0100101D010010A8
:1000A0001D0100101D0100101D0100101D01001098
:1000B0001D0100101D0100101D0100101D01001088
:1000C0001D0100101D0100101D0100101D01001078
:1000D0001D0100101D0100101D0100101D01001068
:1000E0001D0100101D0100101D0100101D01001058
:1000F0001D0100101D0100101D0100101D01001048
:100100001D0100101D0100101D0100101D01001037
:1001100000BE00BE00BE00BE00BE00BEEFF3058004
:10012000103800BEF2EB8871F04F00101C50001028
:10013000A801001090A31AE7D3DEFFFF42012110AF
:10014000FF0100005C540000793512AB4FF0000055
:100150002049086006C881F3088810474FF05040D6
:10016000006810B14FF00000F2E70FA40ECC002998
:1001700002D000F015F8F9E71749184A002000E00E
:1001800001C19142FCD1002080F30A8814498847BC
:10019000144988471449884700BEFDE701C901C2D8
:1001A0009A42FBD3704700BF1C5000101001002082
:1001B0008806002094550010000008200000082048
:1001C00094550010001008200010082000000000C6
:1001D0007047000008ED00E0880600209C0C02201B
:1001E00065160010FD0200105D160010F8B500BF86
:1001F000064B0749C91A891048BF0131491003D07D
:10020000044B0BB101481847704700BF8806002017
:10021000880600200000000008B5054B1BB1054909
:100220000548AFF30080BDE80840FFF7E1BF00BF1D
:1002300000000000B8080020604E001080B485B0B7
:1002400000AF78600B46FB707B68FB60FB78FB724D
:10025000FB68FA7A42EC403000BF00BF1437BD465D
:100260005DF8047B704700BF80B485B000AF786054
:100270000B46FB707B68FB60FB78FB72FB68FA7ACD
:1002800042EC443000BF00BF1437BD465DF8047B2C
:10029000704700BF80B582B000AF786009494FF069
:1002A00000024FF00003C1E9002306494FF0FF327E
:1002B0004FF0FF33C1E9002300210220FFF7BEFF0A
:1002C000ECE700BF0808002080B582B000AF78607E
:1002D000094BD3E90023B3F1FF3F08BFB2F1FF3F61
:1002E000F6D0054BD3E900231343F1D001210220BE
:1002F000FFF7A4FFECE700BF0808002080B586B038
:1003000002AF01F0A7FA022000F05AF80121022002
:10031000FFF7AAFF0A2000F0C9FD07F108030193C7
:100320000123009300234FF400621249124803F0A6
:100330007FFE0123FB60BB68F968184603F02CF8C8
:100340003B1D01930123009300234FF400620B49EE
:100350000B4803F06DFE0223FB607B68F9681846CA
:1003600003F01AF803F08EFE002318461037BD463E
:1003700080BD00BF604E001095020010684E001056
:10038000C902001010B44FF480740C4B53F82020B5
:1003900003EB8003C00082F0400200F1804003F5CF
:1003A000805C02F0C00200F5203003F54053CCF829
:1003B000002041601C605DF8044B704704800340DE
:1003C00030B44FF0000343EC440043EC40000525FB
:1003D0004FF480740B4BC20053F8201003EB8000E5
:1003E00081F0400102F1804303F5203301F0C002A7
:1003F00000F5805100F540500A605D60046030BC3B
:10040000704700BF048003400FB400B583B0049C64
:10041000074801F067FA3CB105A92046019101F0B7
:1004200003F9044801F05EFA012001F015F900BF5C
:10043000704E0010804E0010EFF3108072B6064B25
:10044000D3E8CF1F01220029FAD1C3E8412F0029A8
:10045000F6D1BFF35F8F70475B0800200023034A8B
:10046000C2E88F3F80F31088704700BF5B08002010
:1004700070B58646EFF3108572B6124CD4E8CF6F94
:100480000120002EFAD1C4E8460F002EF6D1BFF3AA
:100490005F8F4FF0010CC80801F007030CFA03F35B
:1004A0001EF800C01CEA030608D14CEA030C0EF843
:1004B00000C0C4E88F6F85F3108870BD1046FFF749
:1004C000A3FF00BF5B080020044A1078431CDBB286
:1004D000182B28BF10231370704700BFF8050020A9
:1004E0000146024A0248FFF7C3BF00BF844E001016
:1004F000780800204FF0E022936843F000539360A7
:10050000704700BF0021044B03F12002C3E88F1F96
:1005100001339342FAD17047500800204FF0E02396
:100520004FF08032C3F80024C3F80424C3F8082431
:10053000C3F80C24C3F81024C3F81424C3F81824F7
:10054000C3F81C24C3F82024C3F82424C3F82824A7
:10055000C3F82C24C3F83024704700BF012300F0F7
:100560001F029340400941B1800000F1604000F556
:100570006140C0F8803103607047024A203042F881
:100580002030704700E100E00123064A410952F89B
:10059000212000F01F0003FA00F01040003818BFBF
:1005A0000120704700E100E0F8B50D46EFF3108739
:1005B00072B6124ED6E8CF2F0123002AFAD1C6E830
:1005C000423F002AF6D1BFF35F8F0D4B00F11004BC
:1005D0009B680C4A53F82430934203D0994201D0CF
:1005E00000F01EFF064B9B6843F82450BFF35F8F5B
:1005F0000023C6E88F3F87F31088F8BD5908002014
:1006000000ED00E01D0100102DE9F04F83B0EFF385
:10061000108A72B6714ED6E8CF2F0123002AFAD184
:10062000C6E8423F002AF6D1BFF35F8F6C4B00F162
:1006300010089B686B4A53F82850954245D08D426C
:100640000C4650D0684FEB1B2F2B3ED801214FEAB0
:1006500050194FEA890909F1604909F5614900F02B
:100660001F0301FA03F0D9F80030C9F8800000EA4E
:10067000030BBFF35F8FEFF30581C9B2002934D0BC
:10068000884505D0CDE9001000F0CAFEDDE9001074
:1006900025F0010EDEF808C0644505D189E0D3F8E5
:1006A00008C0644531D09E469EF9062002EB420305
:1006B000002A07EB8303F2DA644561D0BBF1000F37
:1006C00020D0C9F88001C9F80000454B9B6843F869
:1006D0002850BFF35F8F0023C6E88F3F8AF310884E
:1006E00003B0BDE8F08F1546EFE725F0010EDEF808
:1006F00008C06445D8D19EF906407346002C08DA3C
:10070000154646E0C9F88000DFE793F90640002C63
:1007100037DB04EB440C07EB8C0C9CF80710DCF87F
:100720000820D9719A609CF906206100002A9A710C
:100730003DDBBCF804E05FEA4E5E05D50EF5FF1E1A
:100740000EF5FF5E0EF11F0E6FF0070C0A194FEA4F
:100750006E5E920002EB4E0208323A44ACEB030CA0
:100760006244C2F34A026FEAC2426FEAD2429A80FE
:100770001E4B21441A7807EB81011C708A719DE79A
:100780007346D9B9FF228EF806204BF60152AEF817
:100790000420164C4AF6AA2294F800C01946C91B38
:1007A00049414A43120D83F806C0227086E7104A79
:1007B000DDE79EF906407346002CAADA0D4A0E4C7E
:1007C000D21A083AC2F30A316FEA01516FEA1151A5
:1007D00044EA5202DA80998070E700BF590800208D
:1007E00000ED00E01D010010FC050020980C022027
:1007F00001BDFFFF3606002000F8FFFF4FF0FF0CA1
:1008000020F0030303F1604303F5644300F00300A9
:100810001A68C0000CFA00FC22EA0C0281400A436C
:100820001A607047F0B5EFF30585EDB2EFF3108C69
:1008300072B62649D1E8CF2F0123002AFAD1C1E8A8
:10084000423F002AF6D1BFF35F8F214E40F0010EE8
:10085000B4684AF6AA2354F825701E4A0446A41A1E
:10086000644163431B0D77455BB21BD092F9064090
:100870009C421CD092F912409C4223D092F91E4017
:100880009C4221D092F92A409C4208BF03240FD0F9
:10089000114A0024157813708571C1E88F4F8CF3CD
:1008A0001088F0BDB2680D4C42F82540F0E70024F6
:1008B00004EB440402EB8402FF2494714BF60154D0
:1008C0009480E5E70124F3E70224F1E759080020CA
:1008D00000ED00E0FC050020980C02201D01001036
:1008E000014B0B440360704750080020F8B5124CD0
:1008F000124DAC4211D24FF0FF36002723686BB186
:10090000FFF7E2FD01462046FFF7EAFF6660277227
:10091000BFF35F8F0C34AC42F0D3F8BDFFF7D4FDCA
:1009200001462046FFF7DCFF6660BFF35F8F0834A7
:10093000AC42E3D3F8BD00BF780600208806002053
:100940002DE9F04F2DED028B85B0EFF30583DBB27F
:10095000103B9A0818BF01224FF0010103F0030B6E
:1009600018BFAF4DAF4B08BFAF4D0BEB820253F832
:10097000226001FA0BF205F541539FEDA78B01921E
:100980005A602FE0B3881C0440F19380B379002BA8
:1009900040F0DD80B6F90820002AC0F21E8173699C
:1009A00002EB420203EBC203D3E90247B7F1FF3F78
:1009B00008BFB4F1FF3F0ED005EB8B01AB6A0A69AB
:1009C000D21AE31A934205D301232A6A03FA0BF3DE
:1009D000134200D10C61284600F050FBA042B941FF
:1009E000C0F2FB80B6F90830019A002B0093EA634D
:1009F000C8DBD6F8148003EB4309284608EBC90787
:100A0000D7E9024A00F03AFBA04271EB0A01B9DBD8
:100A1000BAF1000FC0F2C380D7E90431834A934290
:100A200000F0ED807A88B6F9080092B242EA004000
:100A3000984702460B4652EA030100F0B080002BB3
:100A400080F2D180B4EB020E6AEB030A38F9393038
:100A5000C7E902EA002B95DB716903EB430201EB66
:100A6000C202D2E90270BE457AEB000C4FEA4302A3
:100A700088DBB4462CF8083F06E003EB430001EBAB
:100A8000C0005A00D0E90270BE451A447AEB00005B
:100A900001EBC20404DB31F93230A446002BECDA5E
:100AA00028F83930009BACF80030B3881C043FF5BF
:100AB0006DAF3369EFF3108272B6D3E8CF0F012127
:100AC0000028FAD1C3E8401F0028F6D1BFF35F8F9A
:100AD0004FF6FF74B0880023316900B2B480C1E8DA
:100AE0008F3F82F310889842FFF650AF0746A94621
:100AF000746906F1080807EB470E04EBCE03D3E94F
:100B00000250B6F90830C446002B13DBB2460097FA
:100B100004E034F936309446002B09DB03EB43063E
:100B200004EBC602D2E90271BD4270EB0101F0DABA
:100B30005646009FACF8007034F93E7024F83E3001
:100B4000002FD8DAB3794D46002B3FF423AF0023B2
:100B5000B371B6F9083006F10808581C3DD01A46A2
:100B6000776903E08046591C3FF416AF03EB43015D
:100B700007EBC100B0F802C01C461CF4004F9E46B3
:100B800037F93130EED0944280ED028B05D0A8F8D1
:100B90000030328927F8312034817246E3E738F893
:100BA000393033813369EFF3108272B6D3E8CF0F57
:100BB00001210028FAD1C3E8401F0028F6D1BFF375
:100BC0005F8F7388316928F83930009B7380002368
:100BD000C1E88F3F82F31088D4E640BF05B0BDEC7A
:100BE000028BBDE8F08F2846CDE9022300F046FADB
:100BF000029A039B10EB020E43EB010A26E708461C
:100C00000B69029198470028C9D00299D1E90023C5
:100C100011E700BFAFF30080FFFFFFFFFFFFFFFF03
:100C200000800B40D008002000000B40410900105C
:100C30000B4808B50368EFF3108172B6D3E8CFCF45
:100C40000122BCF1000FF9D1C3E84C2FBCF1000F19
:100C5000F4D1BFF35F8F01F0FBF90020002108BD44
:100C60008C0B00202DE9F84F364C25692DB1BDE8DD
:100C7000F84F0A213448FFF733BEDFF8E480032140
:100C8000404600F0E9F90326C4F80C80FFF71CFC8D
:100C90004FF0504C2D4B267003442361DCF800309C
:100CA0000F216370636961801D834FF00405A3F811
:100CB00078504FF00505A3F890504FF00605A3F8C3
:100CC000A8504FF007050E214FF6FF7208274FF08E
:100CD0000A0EA3F8C0504FF001094FF00C0C4FF072
:100CE000020B4FF0090A0D204FF00B05A3F8681115
:100CF0001749A280A3F808E1A160A3F848B0A3F8BF
:100D0000F0A0A3F82051A3F838C1A3F85001A3F82C
:100D10003090A3F86060A3F8D8701A800D4B30466D
:100D2000C8F820700C49DC60FFF73EFC49463046AD
:100D3000FFF714FC094B0A211F640348BDE8F84F74
:100D4000FFF7CEBD440600208C0B00205008002089
:100D5000FFFF1000D00800204109001000200B40C8
:100D600000000B400146F0B50069EFF3108772B642
:100D7000D0E8CF5F0124002DFAD1C0E8454F002D07
:100D8000F6D1BFF35F8FB1F902E04C690EEB4E0C68
:100D9000BEF1000F4FEACC05086904EBCC0C3CDB3C
:100DA000665B4E800026C0E88F6F87F31088BCF822
:100DB0000200CCE902230130C0F30E00012838BF45
:100DC0000120059BACF80200CCF81030069B40EAED
:100DD0000E40CCF814300B69EFF3108272B6D3E8F2
:100DE000CFCF0127BCF1000FF9D1C3E84C7FBCF194
:100DF000000FF4D1BFF35F8F8B886353A1F804E039
:100E00000B69C3E88F6F82F310880122CB680978E1
:100E100003F501538A405A60F0BD0023C0E88F3FBC
:100E200087F310884FF0FF30F0BD00BF03464089C4
:100E3000B0EB214F37DD58690A1402EB420210B5BE
:100E400000EBC2001C69EFF3108C72B6D4E8CFEF50
:100E50000122BEF1000FF9D1C4E84E2FBEF1000F00
:100E6000F4D1BFF35F8F428889B292B28A4207D031
:100E700000221B69C3E88F2F8CF31088002010BD5F
:100E800042F4004242800121002218699971C0E8B1
:100E90008F2F8CF310881C78DA68084602F501530E
:100EA000A140596010BD0020704700BF2DE9F043FC
:100EB00083B0064600F0EAF84FF47A7304464FF028
:100EC000FF306FF00042E6FB0341A04272EB0103EA
:100ED0003ABF044615460D46B4F1960645F1FF3774
:100EE000B44275EB07033CBF0026374600F0CEF84E
:100EF000301A67EB0101012871F1000106DA204682
:100F0000294603B0BDE8F04300F0F8B800F0BEF8A1
:100F1000864267EB010100290ADB0021154B3246AE
:100F2000009315483B460191FFF71CFF0130E6D0C6
:100F3000DFF84C80DFF84490D8F824309F4205D881
:100F4000D8F82820B242DAD29F42D8D1D9F800305E
:100F5000EFF3108172B6D3E8CF0F01220028FAD147
:100F6000C3E8402F0028F6D1BFF35F8F034801F09C
:100F70003DF8E1E7310C0010440600208C0B002006
:100F800000000B402DE9F04306460D4683B0EFF319
:100F90000584E4B23CB12D4B5A6AAA421CD200200F
:100FA00003B0BDE8F0832A4FD7F80C9097F8008083
:100FB000484600F063F808F1040859F828301B1A75
:100FC000301A65EB0101984271F1000110DB20BF7E
:100FD0001E4B5A6AAA42E2D314BF012400249B6A22
:100FE000B34234BF204644F0010003B0BDE8F083B3
:100FF00000F04CF8864265EB0101002914DB154B2B
:101000003846CDE9003432462B46FFF7ABFE011ED1
:101010000ADD0E4B5A6AAA4216D39B6AB34211D319
:101020000B48FFF703FFB6E7084B5C6AAC42B6D348
:10103000641B18BF01249B6AB34234BF204644F0AE
:101040000100ADE7AA42EBD120BFE9E700000B4069
:1010500044060020310C001010B4054B054C064A24
:10106000A04214BF1846581C5DF8044BFFF700BAA5
:101070007C08002000800B40A44E00100346416A0B
:101080000A46986A596A8A42FAD17047034B596AEC
:101090000A46986A596A9142FAD1704700000B409B
:1010A00030B4154A536A9C46946A536A6345FAD130
:1010B000021959414FF0000528BF01250E4B5B6A0C
:1010C000B5B15A1C08BF1A4608D04FF0FF310A4686
:1010D0000948436A8B42FCD38B4207D1064902E0A0
:1010E000486A984202D1886A9042F9D330BC70476E
:1010F0009942EDD8F0E700BF00000B40074A536A61
:101100009942FCD8994207D1044B02E05A6A9142B5
:1011100002D19A6A9042F9D8704700BF00000B4094
:10112000F8B5054606200E4600F0E4F8002842D047
:10113000354A3648954214BF4FF080624FF0006246
:10114000334B344902601A608C6832EA0404FBD1E4
:101150002D4B4FF48071EB1AB3FA83F32E4A5B09DF
:10116000062022F8131000F0C5F8C300B3FBF6F315
:101170000133DA0920D1402601216962AA622F6B6E
:10118000FB0722D42B46002253F82C1F062003F520
:10119000805422602F6300F0ADF840F20131032249
:1011A0008000B0FBF6F0EB6A83F0700303F07E037F
:1011B00023602963AA64F8BD4FF6FE718A421BD9E9
:1011C00022464FF6FF71154ED7E740F2013205F582
:1011D00040531A636B6AAC6A062004EB831400F078
:1011E00089F80F4BA402A3FB0023DB0A0021B4FB08
:1011F000F3F0FFF755FFC5E7C3F34503114603EBD3
:1012000082161A46B9E700BF00800740002002405E
:101210000030024000000240900B0020C0FF3F0061
:10122000757B2B8F00EB400C4FEA8C0C0CF1804C43
:101230000CF5803CF0B51646DCF80420051FB2F52D
:10124000803F38BF4FF48032EDB238BFCCF8042075
:10125000012D2AD94FF40067254C0CF54052176038
:1012600054F82020B2B9DCF80020012D82EA4612A1
:1012700002F0E0020CF5805632602AD94FF400618A
:1012800044F820304FF480330CF500521160CCF854
:101290000430F0BD6769B7FBF2FE0EF1010E0EEBF4
:1012A0004E0EBEF1030EFCD2DDE70129D2D103249C
:1012B0000CF540521460DCF80820D207FBD5DCF8AE
:1012C00000200B4C82EA461202F0E0020CF5805638
:1012D00032600122DCF800504D4005F00305356016
:1012E00002FA01F1DCF808200A42FBD0C6E700BF91
:1012F00080080020014B53F8200070478008002030
:1013000070B4039D04682D0345EA03451B4B002C74
:10131000B3FBF1F3B2FBF3F61FDB194A194B904212
:1013200014BF4FF480424FF40042174C1A6003F58B
:1013300080531A60A36832EA0303FBD1212200F52F
:1013400040530433016086601A600268002AFCDAA8
:101350000822C5601A6070BC7047036803F03F0341
:101360008B42DAD18368C3F30B03B342D5D1C36890
:1013700003F4EE23AB42D0D1EDE700BF001BB70072
:10138000008005400020024000000240012300EBE5
:101390004000800000F1804000F58410416003604F
:1013A000704700BF0023DB8A002242E800F25202AD
:1013B00001D4102118470421184700BF034AD2F86E
:1013C0002838002BFBD0BFF35F8F704700000E4022
:1013D0000021044B044ABFF35F8F43F8041B934280
:1013E000F9D170470C080E402C080E4010B44FF491
:1013F0008D704FF42A64064A064B07491460D0608A
:1014000019605368002BFCDA5DF8044B704700BF8D
:101410000080044000A0044000B0FA00704700BF04
:1014200008B50148FEF7F0FFC84E001038B5054C6E
:10143000054DAC4204D254F8043B9847AC42FAD371
:1014400038BD00BF184E0010584E001038B5054C7E
:10145000054DAC4204D254F8043B9847AC42FAD351
:1014600038BD00BF444E0010584E001010B407485D
:10147000074C084B084A094904601A608B6832EA35
:101480000303FBD15DF8044B704700BF002002400E
:101490007F3BEFEF00300240F6FFF3030000024015
:1014A000044BDB6CB3F5004F03D14FF48022024BA9
:1014B000DA64704700001150002011504FF0E02214
:1014C000044BD2F8881D0B43C2F8883D10EE30045F
:1014D000704700BF030330006FF06041044B054AC2
:1014E00019609368DB4333F06043FAD1704700BF63
:1014F000003002400000024010B545F25320FFF7D3
:1015000051FFBDE8104003460420184710B545F2CE
:101510005320FFF747FFBDE810400346012018475E
:10152000FEF7F0BF10B5054B054C4FF48872184616
:10153000A16803F0BFFBA06010BD00BF0000002049
:1015400000ED00E0002370B52B4C82B0C4F884306D
:10155000FFF74CFF0122294BDA63636C012BFCD1AE
:101560000321264A244B11639C6B012CFCD10226DB
:10157000052521460523224A22480096FFF7C0FE92
:1015800021462B46204A21480095FFF7B9FE00224C
:10159000042031461E4BFFF745FE21462846002217
:1015A0001C4BFFF73FFE0022082011461A4BFFF7A5
:1015B00039FE002209201146174BFFF733FE0022A7
:1015C00006201146134BFFF72DFE0022114B07207A
:1015D0001146FFF727FE0420FFF78CFE00240F4B77
:1015E000A3FB0035AD0CE0B229460134FFF7CEFE77
:1015F000062CF8D102B070BD00000140003001405F
:10160000002F685900000540008C86470080054087
:10161000001BB70080D1F008006CDC0283DE1B43A6
:1016200000B9704700F01CB910B5094B84B01C68B4
:101630004CB1034600914FF0FF3203A90548A04783
:10164000012004B010BD00F04DF9204604B010BDDB
:10165000B40800202116001000BEFDE708B5FFF712
:10166000FBFF00BF38B5064C064DFFF7DFFEAC426E
:1016700004D254F8043B9847AC42FAD338BD00BFBB
:10168000584E0010604E0010036808461146184777
:101690002DE9F0411546427D07468846002A46D08E
:1016A000002D1DDD0B780A2B23D0012D4FF0000CEF
:1016B00018D04646012416F8012F21460A2A04F1C3
:1016C000010422D0A542F6D165450BDC08EB0503E9
:1016D00013F8013CA3F10D03B3FA83F35B093B75E7
:1016E000BDE8F0813B68A5EB0C0108EB0C009847C6
:1016F000ECE7037D002BD8D1036802210F489847FF
:10170000012DE3D04FF0010CD3E716F8013C0D2B6F
:10171000D8D08C4508EB0C00A1EB0C0101DA3B683A
:101720009847022105483B689847A446CAE72946DE
:1017300040463B68BDE8F041184700BFC44F001069
:101740002DE9F04782B00D4691461C460646FFF74C
:101750009DFC4FF0FF3C6FF000472E4A821841F18C
:101760000003944577EB03013CBF62463B462A48A1
:1017700003F04EFB6B1C804640D00CB3274F284B28
:101780001C68B4B1B9F1000F1CD1DFF89C9001E0E6
:10179000246974B12368002BFAD0D9F800300BB15A
:1017A0009C42F5D120462A463146B8472469002C90
:1017B000F0D1B8F1000F26D1284602B0BDE8F0877D
:1017C000184FDCE74FF00A0ADFF85C9002E024696A
:1017D000002CEED02368002BF9D0D9F800300BB1E3
:1017E000A342F4D12A4631462046B847012220467A
:1017F0000DF107018DF807A0B847E8E7304603F080
:10180000CFFA0546B9E7044803F0FAFA284602B0D1
:10181000BDE8F08740420F008006002091160010BE
:10182000AC08002089160010B0080020084A136890
:1018300023B90AE003F110021B6933B18342F9D1E5
:1018400029B9186910601961704701B110607047BB
:10185000AC08002008B500F033F9012008BD00BF36
:10186000F0B583B006468DF80700FFF70FFC4FF088
:10187000FF356FF00044174A821841F1000395428A
:1018800074EB03013CBF23462A46134803F0C0FA19
:10189000124B07461C689CB1114D01E024697CB1D4
:1018A0002368002BFAD02B680BB19C42F6D120465E
:1018B00001220DF10701FFF7EBFE2469002CEFD1A7
:1018C00017B9304603B0F0BD034803F099FA30462B
:1018D00003B0F0BD40420F0080060020AC0800209D
:1018E000B008002038B5044603F05AFA0123054633
:1018F0001A4620462946FFF723FF084B1C682CB1E7
:1019000063682BB198472469002CF9D1284638BD6B
:101910002469002CF4D1284638BD00BFAC08002053
:10192000B1F1000C1DDD0F4A0F4B126830B5D31A10
:10193000B3FA83F30D240D4D5B09411E35F913E015
:101940008C4411F8010F864506D093699B06FCD4A0
:1019500061451060F5D130BD93699D06FCD41460DB
:10196000F3E77047940B002000800740900B0020A5
:10197000224BB1F1000C10B41C682EDD0346002090
:101980001F4A591E12689369DB0617D40130936908
:10199000DB06FCD41368844501F8013FF3D14CB158
:1019A00050211346916353F8342F02F0380203F5A7
:1019B00080531A6060465DF8044B70474CB150216B
:1019C0001346916353F8342F02F0380203F5805325
:1019D0001A6078B15DF8044B70475CB1084B502138
:1019E0001A681346916353F8342F02F0380203F556
:1019F00080531A606FF00200DDE700BF700800201E
:101A0000940B0020054B1B6833B10021044A0548A4
:101A10001268006891631847704700BF7008002083
:101A2000940B002074080020024B1A6893691B076E
:101A3000FCD47047940B0020F8B51C4F1C4D3A683D
:101A40001C4EAA4214BF212522250446D6F800C008
:101A500018B1BCF1000F10D0F8BDBCF1000FFBD0E5
:101A6000014690632846FEF779FD28461249FEF7A5
:101A7000CBFD124B34601C60F8BD0B460F4A0E497B
:101A8000306028461360FEF78FFD01212846FEF7DF
:101A900065FD3A6850211346916353F8342F02F0E4
:101AA000380203F580531A60F8BD00BF940B002084
:101AB0000080074070080020051A001074080020FC
:101AC00010B50E490E4C0F480F4A104B007821609C
:101AD0000020022112781B78FEF754FC022101201D
:101AE000FEF750FC4FF4E1312068FFF719FBBDE829
:101AF000104001210648FFF799BE00BF00000740D3
:101B0000940B0020185000101450001010500010BA
:101B10005C06002003BD00BF10B50446FFF796FC2D
:101B20002346BDE810401847F0B5054687B0192098
:101B300017460E46FEF728FD002104461920FEF741
:101B40000DFD0021CDE90465039700260027012241
:101B50004FF050438C46CDE900670292A9B11A6D4F
:101B60009507FCD5596540BF1A6DD00703D420BF37
:101B70001A6DD207FBD59A6D8A420BD04FF0000C3C
:101B80000DEB8C021168E9E79A6D1A6DD607FBD44C
:101B900040BFE4E70CF1010CBCF1060FF0D1214687
:101BA000192007B0BDE8F040FEF7D8BC0C4B0D4A39
:101BB00093420ED39C4603F2F4710B4A9268CCF820
:101BC000F4070A48CCF8F837CCF8FC070848FFF7C8
:101BD000ABBF4FF0FF3340F2F3719C46EDE700BF1F
:101BE000000808200000082000ED00E0191B00108C
:101BF000151B0010F8B504463A4E0F46FEF71CFCC4
:101C0000B17896F9003001F00101DB0F43EA41039E
:101C10002342327856D096F90130C2F38011DB0F9F
:101C200041EA4301214273784FD0C3F38015C2F3D8
:101C3000401141EA450121424AD0C3F34015C2F3A5
:101C4000001141EA4501214245D0C3F30015C2F31A
:101C5000C00141EA4501214240D0C3F3C005C2F3AF
:101C6000800141EA4501214212D0C3F38005C2F34D
:101C7000400141EA4501214219D003F0020502F07A
:101C800001031D43254015D0B7B11748FEF7BCFB33
:101C900002250423E10744BF1A433270A20702D58C
:101CA000727813437370FEF7D9FB2846F8BD0125FF
:101CB0000223EFE70123EDE76FF00805FEF7CEFB07
:101CC0002846F8BD07258023E4E706254023E1E701
:101CD00005252023DEE704251023DBE70325082361
:101CE000D8E700BFA8080020404F00100A4B93F926
:101CF0000020002A0FDB4FF050410123D1F888016A
:101D00009340184207D04FF0E0224FF08050C1F8C6
:101D10008C31C2F8040D704774060020002300B512
:101D200083B0019300F090FA019B002BFCD003B02C
:101D30005DF804FB10B502F07DFB044601F01EFCCB
:101D400028B14FF0E0234FF08052C3F8042D204615
:101D5000BDE8104002F004BC10B504224FF0E024AE
:101D6000002322610520A361FFF7C4FA0721044B79
:101D7000A3FB00239B09013B6361216110BD00BFF0
:101D8000D34D62104FF0E0234FF07F42002130B579
:101D900085B00391C3F81C2DD3F81C3D1B0E8DF8A4
:101DA00007309DF807309DF807301A060CD5039BC5
:101DB000013303939DF807305B00DBB28DF80730E9
:101DC0009DF807301B06F2D4039B082B40D0039BE1
:101DD000C3F107031B0203F4E0634FF050412548B1
:101DE000254A036012780B689A4233D04FF0E02303
:101DF00000244FF05045D3F8202D204942F47F02B3
:101E0000C3F8202D0E20C3F81C4D02F003FE1C4920
:101E10000B2002F0FFFD1B4B2A68FF211A2043F81C
:101E20002240FEF7EBFC1A201749FEF7BDFB01210B
:101E30001A20FEF793FB00F0FFF9286801F0B8FCC8
:101E4000029400F001FA029B002BFCD005B030BDDB
:101E50000023C2E7FFF780FF4FF0E022D2F8203DD9
:101E60000A4943F07F43C2F8203D0F2002F0D2FD23
:101E7000BCE700BFA80B02207506002071220010ED
:101E800009230010A00B0220ED1C0010351D0010CE
:101E900008B500F0D9F9BDE80840FFF773BF00BFEF
:101EA0004FF0E0234FF08052C3F8042DBFF34F8F63
:101EB000BFF36F8F704700BF836913F8023C662B36
:101EC00000D070474FF0E023D3F8882D42F4700221
:101ED000C3F8882DD3F8342F42F04042C3F8342F92
:101EE00000F08EB92DE9F04F4FF0113E4FF08074A5
:101EF00040E909E34FF0073340F8044C164C40F832
:101F0000343C40E903424FF005334FF006324FF0C6
:101F1000123B40E90F324FF0033A4FF002394FF0D5
:101F200001384FF010374FF009364FF008354FF0B9
:101F300004346FF0020340E905AB40E9078940E94A
:101F40000B6740F8305C40F8404C40F8443C40F8A7
:101F5000481DBDE8F08F00BF1D1D001070B50E209C
:101F6000FEF7BEFA0F20FEF7BBFA01210320FFF7B0
:101F700041FE024601234FF05041002452B2084E68
:101F80009340084D32700848C1F88C31C1F8843153
:101F90002C70FFF70BFEFFF7F5FE204670BD00BF6B
:101FA0007406002075060020911E0010EFF30583D3
:101FB0000F2B84BF014A9B5C704700BFF0E300E039
:101FC000094B1B78FF2B0BD0EFF30583DBB22BB152
:101FD0004FF05042106800EB4300704701F0A0BE84
:101FE0004FF050431868704775060020144B026884
:101FF0001B78FF2B06D10023C2E88F3F81F31088A6
:1020000020BF704710B5002382B0C2E88F3F81F334
:1020100010884FF0FF34012201680A480094091A21
:102020000948A0FB01C0000900EB4000A1EBC00182
:10203000064802FA01F1006800F0B2F902B010BDE2
:102040007506002050080020ABAAAAAA100C022096
:1020500010B51F4B8E461B7882B0FF2B2ED04FF051
:10206000010C02681B4BD21A1B4BA3FB02131B096A
:1020700003EB4303A2EBC3020CFA02F140BF0024BE
:102080000368C3E88F4F8EF31088EFF30583134A7C
:10209000DBB2106823B902B0BDE8104000F0D8B937
:1020A00001AA019400F008FA019B2BB14FF0E02344
:1020B0004FF08052C3F8042D02B010BD40BF002382
:1020C0000268C2E88F3F81F3108802B010BD00BFE4
:1020D0007506002050080020ABAAAAAA100C022006
:1020E0002DE9F041364C064694F800C00F46BCF18D
:1020F000FF0F14461D4682B050D0FEF7C7FF40F2D6
:10210000E733B4EB000C65EB01011CEB030041F17C
:102110000001B0F57A7F71F10003D6F800801DDA76
:102120000023C8E88F3F87F31088264B5A6A9542F0
:102130000DD94FF0E0234FF08052C3F8042DBFF3C8
:102140004F8FBFF36F8F002002B0BDE8F0819B6A14
:10215000A34230D3012002B0BDE8F0814FF47A727F
:10216000002302F051FE0028DAD00023C8E88F3F98
:1021700087F310880122009031681348091A134828
:10218000A0FB0160000900EB4000A1EBC00110487A
:1021900002FA01F1006800F003F9C6E700230268C3
:1021A000C2E88F3F81F310882046294602B0BDE87F
:1021B000F041FEF7E7BE9542BBD00120CBE700BF60
:1021C0007506002000000B4050080020ABAAAAAA08
:1021D000100C022008B500F0D5F8014B186008BDBE
:1021E000100C022001234FF05042034991F90010D6
:1021F0008B40C2F880317047740600200000000058
:102200000BA10CC9126853F82210086806C881F3A4
:102210000B88022181F31488203080F30988BFF3F2
:102220006F8F4FF0000080F311881047AFF30080EC
:10223000000000D0F008002062B661B6BFF34F8FF7
:10224000BFF36F8F66DF00BFEFF311804FF0100117
:1022500081F31188BFF34F8FBFF36F8F704700BFBB
:1022600080F31188BFF34F8FBFF36F8F704700BFAC
:10227000EFF309811EF0100F08BF21ED108AEFF374
:102280000B82734621E9FC0F55FC084457FC096496
:1022900059FC0A8401E9F00319A00CC8106853F82E
:1022A000203019604FF0100181F31188BFF34F8F78
:1022B000BFF36F8F01F07CFA4FF0000080F31188BC
:1022C0000FA10CC9126853F8221008681838B0E83A
:1022D000F00345EC004447EC016449EC0284B0E8AB
:1022E000FC0F13F0100F08BFB0EC108A82F30B88BC
:1022F00080F30988184700BFAFF30080AFF3008078
:10230000000000D0F00800201EF0040F0CBFEFF317
:102310000880EFF30980014908470000B91E00104A
:102320002DE9F84307460D4600F10C0901F012F9BA
:102330003B683C692B43A1453B601ED04FF0000831
:1023400009E036B1D30148BF48EA050801F0D6FFDD
:102350003B68A1450FD020460268646822F07F45A3
:1023600012F0806F43F0007105EA0306E9D0B54230
:10237000E8D0A145EFD123EA08033B60BDE8F8436C
:1023800001F0B4BF10B51C2002F06AFB044620B176
:10239000002340F8043B00F09DF8204610BD00BF2C
:1023A0002DE9F04180460D461E46174601F0D2F851
:1023B000D8F8004004EA050356B933B33FB324EA22
:1023C0000505C8F8005001F091FF2046BDE8F081F6
:1023D0009D42F3D0069BD3B1391E18BF01211A4686
:1023E000090641F08061294308F1040001F084FBF3
:1023F00001F07CFF30B302F0E5F88301044611D50B
:1024000024F07F442046BDE8F081069B23B901F00B
:102410006DFF2046BDE8F081391E18BF01211A4624
:102420000906E0E701F0FCFCD8F8004005EA0403E7
:102430005EB923B11FB124EA0505C8F8005002F0C7
:1024400043F8DDE701F0DAFCD5E7AB42F7D1F1E77D
:102450002DE9F84307460D4600F10C0901F07AF822
:102460003B683C692B43A1453B601ED04FF0000800
:1024700009E036B1D30148BF48EA050801F03EFF44
:102480003B68A1450FD020460268646822F07F4572
:1024900012F0806F43F0007105EA0306E9D0B542FF
:1024A000E8D0A145EFD123EA08033B6001F01EFF0D
:1024B0003868BDE8F88300BF8C4600B586461346F1
:1024C0007146624602485DF804EB02F08BBA00BF29
:1024D000212300104FF0FF31002200F10803C0E972
:1024E0000131C0E903330260704700BF002303617C
:1024F000704700BF10B4D0E9003294680133C1E9DD
:102500000124616091605DF8044B086103607047CD
:1025100030B40D686B1C10D000F108031C465B68DA
:102520001A68AA42FAD902684B60013299608C603D
:102530006160086130BC0260704704696368F2E75B
:102540000346026910B45468406899689C428160EF
:10255000486008BF5160002110685DF8044B0138E5
:1025600019611060704700BF70B51646026C0446D2
:10257000856B2AB9066801354EB31046A56370BD58
:102580008EB9406802F096FB6368216CA2680B4428
:102590009342636028BF236805F1010528BF63608B
:1025A0000020A56370BDC06802F084FB226CE36864
:1025B00051429B1A2268E360934202D2A3680B4403
:1025C000E360022E08D001350020A56370BD80684D
:1025D00001F0B6FBA660D1E7012D38BF0125DFE78A
:1025E0002DE9F043064685B001F01AFC96F8453017
:1025F0005DB2002D1CDD06F1240708E0A26BE36B41
:1026000003969A423DD36B1EDAB25DB282B1B46CCE
:10261000002CF3D1736A5BB1384601F00BFB002844
:10262000F1D001F073FB6B1EDAB25DB2002AEED17D
:10263000FF2386F8453001F047FF01F0F1FB96F8E3
:1026400044305CB2002C14DD06F1100503E0631E7B
:10265000DAB25CB26AB133695BB1284601F0EAFADA
:102660000028F4D001F052FB631EDAB25CB2002AFB
:10267000F1D1FF2386F8443005B0BDE8F04301F006
:1026800023BF94F84580226CA36B4FFA88F803F1BE
:1026900001099AB92368002B3FD0B8F1FF3FC4F875
:1026A00038902ED1636A002BADD004F1240001F0E4
:1026B000C1FA0028A7D001F029FBB4E7606803A99C
:1026C00002F0F8FA6368226CC4F838901344A268E8
:1026D000636093420ED32368B8F1FF3F6360E1D09B
:1026E00000F046FF40458ED908F101035BB284F843
:1026F000453088E7B8F1FF3FF2D1636A002B82D002
:10270000D3E700F035FF8045BFF47DAF08F1010845
:102710004FFA88F884F8458075E7A068019301F0C6
:102720000FFB019BB8F1FF3FC4F83890A3608146CE
:1027300008D1636A9BB9B9F1000F3FF464AF01F0AF
:10274000E5FA70E700F014FF4045F4D908F1010301
:102750005BB284F84530B9F1000FF0D153E704F1D2
:10276000240001F067FA00287FF45BAFE3E700BFC5
:10277000F0B5846C83B0A26BE36B01909A4203D3F3
:102780000025284603B0F0BD94F84560226CA76B85
:1027900076B2E2B1606801A902F08CFA6268236C3B
:1027A0001A44A36862609A4201D3236863600025DB
:1027B0000137731CA76313D1636A002BE1D004F1C6
:1027C000240001F037FA002818BF0125D9E7256851
:1027D000002DECD1A06801F0B3FAA5600546E7E74B
:1027E00000F0C6FE8642CCD2013676B284F845604F
:1027F000C7E700BFF8B5C0B31746A1FB00230546E5
:102800000E4693BB01FB00F010F1550F2DD854304C
:1028100002F026F9044640B356B300F15403C4E96C
:102820000F56236001F0FCFA0025FF23216CA563FD
:1028300084F8443084F84530E36B226801FB03F3ED
:10284000591A626013440A44C4E9023204F11000C8
:10285000FFF740FE04F12400FFF73CFE01F034FED8
:1028600084F850702046A564F8BD00242046F8BDC9
:102870000346D4E72DE9F843044690461D460F462B
:10288000FFF794FB01F0D6FDA26BE36B06469A427C
:1028900008D3022D06D00024304601F061FE204608
:1028A000BDE8F883394694F845702A4620467FB241
:1028B000D4F83890FFF758FE7B1C17D1A36CFBB1FE
:1028C000022D02D1B9F1000F09D12046FFF750FFC8
:1028D00028B1B8F1000F02D00123C8F8003001245C
:1028E000304601F03DFE2046BDE8F88300F040FE92
:1028F0008742F4D201377FB284F845700124EFE7B4
:10290000636A002BEBD004F1240001F093F9002856
:10291000DFD1E4E7F0B5044685B00F46019201F03F
:102920007FFAA56B002D53D1019BA3B302A801F040
:10293000E1F92E4601F0C8FD00F00CFE01F070FA3E
:1029400094F84430FF2B08BF84F8446094F8453075
:10295000FF2B08BF84F8456001F0B6FD01A902A86D
:1029600001F016FDE0B901F05BFAA36B2BBB01F09F
:10297000ABFD019904F1240001F0A4F82046FFF713
:102980002FFE01F0B3FC00B301F04AFAA56BFDB9CC
:10299000019B002BCED101F097FD002005B0F0BDCA
:1029A0002046FFF71DFE01F0A1FC01F039FAA36BF0
:1029B000002BF0D001F088FDE6E701F085FD204610
:1029C000FFF70EFE01F092FCDEE701F017FADBE7FD
:1029D000226C5AB1E168A36811449942E16028BFB2
:1029E0002168384628BFE16002F064F92369013D9F
:1029F000A56323B901F068FD012005B0F0BD04F125
:102A0000100001F017F90028F4D001F0F7F9F1E710
:102A1000002955D0444B5A68904272D01A6810B4BD
:102A2000002A2CD0DA6890427BD09A68002A41D0E4
:102A30005A69904273D01A69002A42D0DA699042EA
:102A400065D09A69002A42D05A6A904244D01A6AE4
:102A5000002A45D0DA6A90425BD09A6A002A44D0B4
:102A60005A6B904257D01A6B002A43D0DA6B9042CF
:102A700053D09B6B002B42D05DF8044B7047DA6853
:102A800090424ED05A69904249D01A46DC69A04221
:102A90003DD05C6AA0421FD0DC6AA04239D05C6B9A
:102AA000A04238D0DC6BA04237D0C2E900105DF8FC
:102AB000044B70475A69904231D003F10802E5E7B0
:102AC0007047DA69904222D003F11002E1E75A6AB6
:102AD000904201D0154ADFE7042203EBC202E4E78B
:102AE000DA6A904215D0124AD9E75A6B904212D056
:102AF000104AD7E7DA6B90420FD00F4AD5E70F4A5A
:102B0000D3E7002203EBC202C2E9001070470322A0
:102B1000E3E70522E1E70622DFE70722DDE70222FD
:102B2000DBE70122D9E700BF1008002028080020B9
:102B30003008002038080020400800204808002005
:102B400070B504460E46154601F06AF994F8443013
:102B5000FF2B04BF002384F8443094F84530FF2B4A
:102B600004BF002384F8453001F0AEFCA36B23B111
:102B70002046BDE87040FFF733BD04F124002A462B
:102B8000314601F009F82046BDE87040FFF728BD46
:102B9000064C08B5FFF784F92368022B00D8FEE73E
:102BA000FFF77EF92368022BFAD8F8E70C0900201A
:102BB000F8B5836B002B02DB836B012B16DD324CE7
:102BC000036B26685A1E276823689B6B002B03DB68
:102BD00023689B6B012B0ADD6668656863689B6BE5
:102BE000002B03DB63689B6B012B20DDF8BD2749BD
:102BF0000D68002DF0D1FF6B336B07F001069B1BB6
:102C00009A42E9DB4668F607E6D5D4F804C067685F
:102C10006268926B002A1ADB6268926B012A16DCEA
:102C20004E68A6B91A46FD6BDCF8303007E017494C
:102C30004B68002BDAD1336B4FF0FF36ED6B05F0AC
:102C400001055B1B934219DD0136CFD000254FF003
:102C500050431B689D420DD054F825309B6B0233C6
:102C6000C4D02846FFF7BEFA6FF0010254F82530B1
:102C70009A63F8BD012341F82530F8BD43689B07EE
:102C8000E2D50125E3E700BFF0080020900C022008
:102C90004FF050411B4B0A6853F8220000282CD0FB
:102CA00053F82200013843F822000A6853F8223012
:102CB0001BBB10B51449154B53F822400B78013B50
:102CC000DBB20B702BB9124800F81230114AC2E87F
:102CD0008F3F4FF050424B781068013BDBB24B7096
:102CE00033B90B4A0C4902EB40025370C1E88F3FE5
:102CF0000020FFF7B5FA0CB910BD7047BDE81040D1
:102D0000FFF7CEB8A00B02209C0B0220900C0220F3
:102D1000980B02205E0800205F0800202DE9F84390
:102D20009600804630460D46994601F099FE0028EF
:102D300000F0888007467C2001F092FE04460028BF
:102D40007DD07C22002101F067FF3246A521384664
:102D5000676301F061FF636B043E1E4426F00706C3
:102D6000002D3ED02B7884F84030002B36D06B7885
:102D700084F8413093B3AB7884F8423073B3EB7886
:102D800084F8433053B32B7984F8443033B36B79F0
:102D900084F8453013B3AB7984F84630F3B1EB795E
:102DA00084F84730D3B12B7A84F84830B3B16B7ACA
:102DB00084F8493093B1AB7A84F84A3073B1EB7A36
:102DC00084F84B3053B12B7B84F84C3033B16B7BA0
:102DD00084F84D3013B1AB7B84F84E30002384F877
:102DE0004F30089D04F108001F2D28BF1F252563C3
:102DF000A565FFF77BFBC5F1200504F11C00FFF77B
:102E000075FB4B4642463046616BE5616461A462E6
:102E1000FFF768F84FF0FF320C4B20609845A26333
:102E200008D00B4B984505D0099B03B11C60204688
:102E3000BDE8F883E36B43F00103E363F4E738464E
:102E400001F098FE00242046BDE8F88341320010CE
:102E5000912B00104FF05042504B12682DE9F04773
:102E6000DFF844914E4CDFF8448153F822604D4D19
:102E700040E0DFF83CA10020FFF7F2F9FFF7E4F9AA
:102E80004FF050431B68DAE8CF2F0121002A01D10F
:102E9000CAE8421FBFF35F8F002A50D15B000122B6
:102EA000434462705A704FF050431A68D5E8CF3FE0
:102EB0000121002B01D1C5E8431FBFF35F8F73B120
:102EC00018F81230002B4BD1D5E8CF1F0123002971
:102ED000FAD1C5E8413F0029F6D1BFF35F8F012346
:102EE000237008F812304FF050431A6849F82270E6
:102EF000002F40D0B36B02334ED14FF050410A68DF
:102F000059F822706FB1002349F8223023780A68FB
:102F1000013BDBB2237023B908F81230C5E88F3FBC
:102F20000A686378013BDBB26370002BA1D108EB28
:102F30004202DFF87CA05370CAE88F3F9BE708EBA2
:102F4000430252785B0012BBDAE8CF1F012200294E
:102F5000FAD1CAE8412F0029F6D1BFF35F8F9EE76F
:102F600023780133DBB223704FF050431A6849F8DD
:102F70002270002FBED11A682378013BDBB2237088
:102F8000002BB7D108F81270C5E88F7F6FE7637820
:102F90000133DBB2637086E7BDE8F087F0080020FC
:102FA0009C0B02205E080020A00B0220980B022040
:102FB0005F080020F8B5FFF747F94FF0504206468A
:102FC000354B1268D3E8CF1F0120002901D1C3E897
:102FD000410FBFF35F8F314D00293ED151000123D6
:102FE0002F4C294463704B702E4F3B68002B45D00B
:102FF0004FF050432C4A1968D2E8CF3F0120002BF4
:1030000001D1C2E8430FBFF35F8F73B115F81130E0
:10301000002B3CD1D2E8CF0F01230028FAD1C2E81F
:10302000403F0028F6D1BFF35F8F0123237005F8DE
:1030300011304FF050413B6801333B602378096801
:10304000013BDBB223701BB905F81130C2E88F3F9A
:103050003046BDE8F840FFF703B9510005EB4202E6
:10306000527872B9D3E8CF0F01220028FAD1C3E811
:10307000402F0028F6D1BFF35F8FB0E7FFF7EAFEDD
:10308000B6E7074C63780133DBB26370ACE72378B3
:103090000133DBB22370CCE75F080020980B0220DD
:1030A0009C0B0220B40B02205E0800202DE9F8439F
:1030B000594C5A4E5A4FDFF88091DFF880812368CF
:1030C000002B37D0FFF7C0F8336893B14FF050436F
:1030D0001B6857F82320002A3BD04FF0504157F887
:1030E0002320013247F823200B6857F82330012BA7
:1030F00028D0236803B34B4BDB68DD68AB6B01332F
:1031000040F0838005F10800FFF71AFA464A136879
:10311000013B13602368013B236033680BB1FFF769
:10312000B7FD686B01F026FD284601F023FD2368FA
:10313000002BC7D1BDE8F8833368002BBFD0FFF761
:10314000A7FDBCE7D9F80030002BD2D1FFF782FEF3
:10315000CFE7D8E8CF2F0121002A01D1C8E8421FCC
:10316000BFF35F8F002A32D1304A59000123304823
:10317000114443704B704FF050452E4B2968D3E8F3
:10318000CFCF5FF0010EBCF1000F01D1C3E84CEFCF
:10319000BFF35F8FBCF1000F11D012F811C0BCF16A
:1031A000000F26D1D3E8CFCF0125BCF1000FF9D114
:1031B000C3E84C5FBCF1000FF4D1BFF35F8F012374
:1031C0004FF05045037002F811302B6885E7174A1D
:1031D000590002EB43035B788BB9D8E8CF0F01238A
:1031E0000028FAD1C8E8403F0028F6D1BFF35F8F2E
:1031F000BCE703780133DBB203702B686DE70C4842
:1032000043780133DBB24370B5E73368002B91D0CC
:10321000BDE8F843FFF73CBDB00B0220500C022084
:10322000A00B0220700C0220AC0B0220980B022095
:103230009C0B02205E080020B40B02205F080020D7
:1032400008B5FEF72DFE044CFFF730FF2368022B74
:10325000FAD9FEF725FEF7E70C0900202DE9F84F13
:103260004FF05045464A474B474C0F46D4F800A014
:10327000464ED2F800800446D3F80090FEF7E4FFF3
:103280002B6856F823B0FEF7EBFF00238BF879305C
:10329000FEF7DAFF2B6856F823B0FEF7E1FF0BF1DB
:1032A0000800FFF74DF9631C00D18FBB4FF050456C
:1032B0001AEB04042CBF01270027FEF7C5FF2B687B
:1032C00056F823A0FEF7CCFFCAF8084097B9FEF7DE
:1032D000BBFF2B6856F82350FEF7C2FF404605F1AE
:1032E0000801FFF715F92A4B1A68A24288BF1C6033
:1032F000BDE8F88FFEF7A8FF2B6856F82340FEF7CD
:10330000AFFF484604F10801BDE8F84FFFF700B9E8
:10331000204C6768FEF798FF2B6856F82380FEF76D
:103320009FFFC8F80C70FEF78FFF2B6856F82380BC
:10333000FEF796FFBB68C8F81030FEF785FF2B68D4
:1033400056F82380FEF78CFFBA6808F10803536033
:10335000FEF77AFF2B6856F82380FEF781FF08F10D
:103360000803BB60FEF770FF2B6856F82350FEF78A
:1033700077FF2368AC6101332360BDE8F88F00BF9D
:10338000FC08002004090020840C0220F008002022
:10339000280C02205C0C02202DE9F041644E04460A
:1033A0000D46FEF751FF33689BB14FF05043614A21
:1033B0001B6852F82310002935D04FF0504052F8C6
:1033C0002310013142F82310036852F82330012BF7
:1033D00016D0ECB13368626865604BB1A36B002B0B
:1033E00002DBA36B012B65DD25EA0205AB075DD18E
:1033F00033681BB1BDE8F041FFF74ABCBDE8F0817E
:103400004D4B1B68002BE4D1FFF724FD002CE1D1CC
:10341000FEF71AFF4FF05042484B126853F8224013
:10342000FEF71EFFD6E74649D1E8CF0F0127002857
:1034300001D1C1E8407FBFF35F8F002852D14148DE
:103440004FEA430C0123404984444B708CF801300F
:103450004FF0504C3D4BDCF80070D3E8CFEF5FF0FD
:103460000108BEF1000F01D1C3E84E8FBFF35F8F9B
:10347000BEF1000F12D010F817E0BEF1000F49D1D5
:10348000D3E8CFEF5FF0010CBEF1000FF8D1C3E835
:103490004ECFBEF1000FF3D1BFF35F8F01230B704E
:1034A00000F817304FF050431B6886E72046FFF7BF
:1034B0007FFB9DE7A46BE540EA0799D44FF05043AA
:1034C0001B689C4221D01D4D55F824309B6B023364
:1034D0008ED02046FEF786FE6FF0010255F82430AC
:1034E0009A6385E717484FEA430C00EB43035B7888
:1034F000BBB9D1E8CF7F0123002FFAD1C1E8473F04
:10350000002FF6D1BFF35F8F9CE70122104B43F8E9
:1035100024206DE70B780133DBB20B70DCF8003050
:103520004BE709494B780133DBB24B7090E700BFA2
:10353000500C0220A00B0220B40B0220F008002047
:103540005F080020980B02209C0B02205E080020E0
:10355000900C0220024B1B6803B97047FFF72ABD8D
:10356000500C0220014B1868704700BF840C0220E9
:10357000014B1868704700BFAC0B0220814B2DE94E
:10358000F0471B685BBB804B1D6801351D6075B340
:10359000DFF81882D8F80030AB4240D97B4C7C4D24
:1035A0002B681B6B03EB830354F82330012B6B68F0
:1035B0001B6B03EB830354F8233040F28F80012B05
:1035C0004FF050431E6840F2A380002E00F0CB80E5
:1035D0002B689B6B023300F0AE8001249EE0002438
:1035E0006C4A1368013313602046BDE8F0876A4BCC
:1035F0006A4A186811681960694910600A680132DE
:103600000A601A681268002A74D14FF0FF33DFF89D
:103610009C81C8F80030D8F80030AB42BED8DFF843
:103620007891D9F800301B68002B00F09E800026AE
:10363000564C5C4F44E09969D3E9032AC2F808A0CC
:10364000CAF804204A68184662450A6808BFC1F8EB
:1036500004A0013A9E610A60D96A71B1D3E9082ACF
:10366000C2F808A0CAF804204A6872450A6808BF70
:10367000C1F804A0013ADE620A601A6BD7F800E0D4
:1036800002EB8201724504EB810E88BF3A60DEF8DE
:103690000420D2F808A0DA60C3F810A0CAF804C069
:1036A000C2F808C054F82120C3F818E0013244F8E9
:1036B0002120FFF77DFAD9F800301B68002B55D088
:1036C000D9F80030DB68DB689A6803F1080C954292
:1036D00003F11C0EAFD2C8F8002060E7012B11D90E
:1036E0004FF05042304B16681B6823B3002E7FF416
:1036F0006FAF38E01B68DFF8B480DB681B68C8F880
:10370000003047E74FF05041274B0E681A6872B1FE
:1037100036B32B689B6B023308D000240020FEF7E1
:1037200061FD6FF001022B689A6324B91E4B5C683F
:10373000002C3FF459AF012E1DD000244FF0504310
:103740001B68012B1BD06B689B6B02333FF44CAFA3
:103750000120FEF747FD6FF001026B689A6343E7B3
:10376000114B5B683BB10124E8E7084C4FF0FF3395
:10377000C8F8003013E701242046BDE8F0870A4A64
:10378000536031E7B40B0220840C02200C090020A6
:10379000F0080020380C0220FC080020040900205A
:1037A0002C0C0220BC0B0220900C0220280C0220C2
:1037B0002DE9F84F4FF050430446DFF8A0A21B68F4
:1037C000DAE8CF2F0121002A01D1CAE8421FBFF356
:1037D0005F8FDFF88C82002A4CD15A0001239A4E69
:1037E0004244737053704FF05043DFF878921A6878
:1037F000D9E8CF3F0121002B01D1C9E8431FBFF316
:103800005F8F7BB118F81230002B40F0B180D9E8FF
:10381000CF1F01230029FAD1C9E8413F0029F6D181
:10382000BFF35F8F0123337008F81230874B1B689A
:10383000002B31D001214FF05043854A42F824102B
:10384000D3F800C03378013BDBB233701BB908F802
:103850001C30C9E88F3F4FF0504273781268013B2B
:10386000DBB2737023B908EB42025370CAE88F3F92
:10387000BDE8F88F5A0008EB43035B78002B7CD13E
:10388000DAE8CF1F01230029FAD1CAE8413F002915
:10389000F6D1BFF35F8FA1E76D4A6E4D42F8243039
:1038A0006D4ADFF8C4B1176855F82430996955F8A6
:1038B00024301B6B03EB83030BEB8303994268D02B
:1038C000012007EB87030BEB830319680833A04043
:1038D00051B91168143B01391160002F54D053F8CD
:1038E000081C013F0029F4D0B446596899422DD0F4
:1038F000BE4606E055F82460B2422FD0496899428E
:1039000023D0CA68966B771CF4D157683842F5D03B
:103910006346944632461E464FF0504355F82410F5
:103920008A6355F82410CCF8384045F824C0D3F801
:1039300000C039B1086B8B6900EB80070BEB870B7C
:103940005B4539D055F82C307CE77746143BD7B12E
:1039500053F8082C013F002AF8D0C6E756683042D9
:10396000CCD04FF0504394636646D3F800C0E9E7EB
:1039700033780133DBB2337058E7334E7378013359
:10398000DBB273702FE766464FF05043D3F800C0A8
:10399000D8E755F824000830FEF7D2FD55F824305A
:1039A00055F82410186B083100EB80000BEB8000F9
:1039B000FEF7A0FD284A83E74B68C96B01F00101BF
:1039C000411A23FA04F0C70704D555F824004068CB
:1039D00023EA00039C0703F0030064D568686C6861
:1039E000006BE46B03F0010304F00104001B81424F
:1039F0003CDC002BA6D02B6828681B6BC06B00F04A
:103A000001001B1A99429DDD2B689B6B002B99DBF3
:103A10002B689B6B012B4EDD013293D00124644552
:103A200044D055F824309B6B02338BD02046FEF7F0
:103A3000D9FB6FF001014FF0504355F824209163FA
:103A4000D3F800C07EE700BF9C0B0220B40B02201D
:103A5000900C0220F0080020BC0B02205F08002020
:103A6000980B02205E0800200C0900206C68A46BF3
:103A7000002CBEDB6C68A46B012CBADC104C6468B3
:103A8000002CB6D1002BC9D02B6829681B6BC96BE1
:103A900001F001015B1A9842C0DD2B689B6B002B83
:103AA000BCDB0122B4E70028A5D14BE70123044A7F
:103AB00042F82C3068E7024B1C68002CAFD0ABE713
:103AC000900C022070B50C460546FEF7BDFB4FF08A
:103AD0005042084B126853F82260FEF7C1FB28469B
:103AE00006F11C01FEF714FD2046BDE870400121DF
:103AF000FFF7B4BBF00800202DE9F8434FF0504623
:103B00000F4604469046234DFEF79EFB336847F070
:103B1000004755F82390FEF7A3FBC9F81C706768AF
:103B2000FEF792FB336855F82390FEF799FBC9F82E
:103B30002070FEF789FB336855F82390FEF790FB61
:103B4000BB68C9F82430FEF77FFB336855F8239033
:103B5000FEF786FBBA6809F11C035360FEF774FB9D
:103B6000336855F82390FEF77BFB09F11C03BB601B
:103B7000FEF76AFB336855F82350FEF771FB01210D
:103B8000236840460B44EC622360BDE8F843FFF72E
:103B900065BB00BFF00800202DE9F0474FF050460C
:103BA000044617468946D0F80480214DFEF74CFBA9
:103BB000336855F823A0FEF753FBCAF82080FEF7C0
:103BC00043FB336855F823A0FEF74AFBD8F80830CA
:103BD000CAF82430FEF738FB336855F823A0FEF707
:103BE0003FFBD8F808200AF11C035360FEF72CFBBA
:103BF000336855F823A0FEF733FB0AF11C03C8F81D
:103C00000830FEF721FB336855F82350FEF728FBF8
:103C10002368002F03F10103EC62394608BF4846D0
:103C2000236018BF4FF0FF30BDE8F047FFF716BB29
:103C3000F008002070B50025C368D868C36AD0E9D1
:103C40000842A26054605C6800F11C018C42244C64
:103C500008BF5A601A682468013AC5621A60002CCD
:103C600032D1D0E9031283698A605160596800F14A
:103C70000805A94208BF5A601A681A49013A1A6031
:103C8000036B0A689342184A88BF0B6003EB8303F7
:103C90004FEA830C02EB83035C6852F80C10A668B1
:103CA0000131C46006617560A560836142F80C1043
:103CB000FEF77EFF4FF050420C4B126853F8220083
:103CC000003818BF012070BD094B5C68A268C0E9CC
:103CD000084251601A68A1600132C3621A60E7E7C6
:103CE000B40B0220BC0B02200C090020900C022017
:103CF0003C0C0220034A044B12681B68C0E90023F5
:103D0000704700BF2C0C0220840C02204FF0504260
:103D10000121024B126843F822107047900C0220D8
:103D200010B5FEF791FA4FF05042044B126853F869
:103D30002240FEF795FA204610BD00BFF008002093
:103D400058B1C36D016B826D013B914270B5044661
:103D5000C36500D01BB1002070BD0020704700F18A
:103D600008052846FEF7ECFB204AA36D1168236383
:103D70008B4288BF13601E4AC3F1200003EB83030C
:103D80004FEA830C02EB8303E061586852F80C1091
:103D90008668E060266175608560A361A36B013170
:103DA000002B42F80C1002DBA36B012B01DD01207C
:103DB00070BD4FF05043A26B1B689A4210D0A36BAA
:103DC0000C4D55F823309B6B0233F0D0A06BFEF7FF
:103DD00009FA6FF00102A36B55F823309A63E6E706
:103DE0000121A26B044B43F82210E0E7BC0B022038
:103DF0000C090020F0080020900C02204FF05043E6
:103E0000054A1B6852F8232022B10121034A42F8D7
:103E100023107047FEF744B8A00B0220900C02203C
:103E200038B5FEF711FA3E4B1B6893B14FF0504383
:103E30003C4A1B6852F82310A1B14FF0504052F891
:103E40002310013142F82310036852F82330012B6C
:103E500000D038BD344B1B68002BFAD1BDE8384088
:103E6000FEF7F8BF3149D1E8CF0F0124002801D176
:103E7000C1E8404FBFF35F8F002831D12C484FEA93
:103E8000430C01232B4984444B708CF801304FF0D4
:103E9000504C294BDCF80040D3E8CF5F5FF0010EB7
:103EA000002D01D1C3E845EFBFF35F8F85B110F856
:103EB0001450002D27D1D3E8CFCF0125BCF1000F3E
:103EC000F9D1C3E84C5FBCF1000FF4D1BFF35F8FB1
:103ED00001234FF050450B7000F814302B68ACE70D
:103EE00013484FEA430C00EB43035B7893B9D1E8E6
:103EF000CF4F0123002CFAD1C1E8443F002CF6D16A
:103F0000BFF35F8FBDE70B780133DBB20B70DCF8DA
:103F1000003092E707494B780133DBB24B70B6E7CC
:103F2000500C0220A00B0220B40B02205F080020DE
:103F3000980B02209C0B02205E0800202DE9F04126
:103F40000546FFF76DFF2E4A2E4F136801331360AD
:103F50003B6853B32C4E2D4B05F108041A6801320F
:103F60002A651A602A4A2B6B11688B4288BF13603E
:103F700003EB8303980006EB830359683258D1F8AA
:103F800008C0D7F800E00132E960C5F810C0CCF8ED
:103F900004408C60AB613250BEF1000F2CD13B6805
:103FA00043B3BDE8F041FEF773BE1368164E012B14
:103FB000D1D1344606F5207820461434FEF78AFA2B
:103FC0004445F9D1DFF86480124C4046FEF782FA8E
:103FD0002046FEF77FFA1048FEF77CFA0F48FEF7FE
:103FE00079FA0F48FEF776FA0E4BC3F800800E4BB5
:103FF0001C60B0E7BDE8F0812846FEF7D9FDCEE7AA
:10400000AC0B0220500C02200C090020B80B02203F
:10401000BC0B0220FC0B02203C0C0220700C022086
:104020005C0C0220FC08002004090020E80B0220A0
:1040300010B582B0049C0094059C0194FEF76EFEBE
:1040400038B14FF0FF324260FFF778FF012002B035
:1040500010BD4FF0FF3002B010BD00BF10B582B0F0
:10406000049C0094069C0194FEF758FE30B1059A1A
:104070004260FFF763FF012002B010BD4FF0FF3038
:1040800002B010BD0023F0B53024264A264E87B07A
:10409000CDE9016225484FF4007202A90093ADF802
:1040A0000C40FEF73BFE20B14FF0FF324260FFF7BD
:1040B00045FF3123002432681D4D8DF80C301D4B17
:1040C00094631D480193009423462A6002A94FF48B
:1040D0000072FEF723FE88B14FF0FF374760FFF70D
:1040E0002DFF012273689A636B6000F035FC012894
:1040F00005460BD0114B1B6807B0F0BD0122736859
:104100009A636B600D4B1B6807B0F0BDFEF79CF81F
:104110000B490C4A0C4B0F6015601C60FDF71EFF2D
:10412000E8E700BF49444C45180C0220413200101A
:10413000F00800201C0C0220912B0010E44F00100E
:10414000280C0220500C0220840C02202DE9F0479C
:10415000FFF766FE4FF05040574A5849136805680C
:10416000013B13604B780068013BDBB24B7033B905
:10417000534901EB40014B705249C1E88F3FD2F8DF
:1041800000C0BCF1000F6ED14F4B1C68002C62D0F8
:104190004E4F3B68002B48D0DFF848E14C4EFB689F
:1041A000DB68DA6AD3E9081088604160516803F17E
:1041B0001C04A142116808BF50600139C3F82CC02B
:1041C00011609969D8681A694C688260506003F17F
:1041D0000800844208BF4A600C681A6BDEF8008051
:1041E000013C424502EB820A0C603ED906EB8A0490
:1041F0006168CEF80020D1F8088056F82A20D960EE
:10420000C3F81080C8F8040088609C613B680132E4
:1042100046F82A20002BC2D12E4B1A681268002AB9
:1042200043D14FF0FF322C4B1A60DFF8BC80D8F836
:104230000040002C32D00127284EFFF79FF908B12B
:1042400046F82570013CF8D1C8F8004056F82540E2
:10425000003C18BF0124224B1B680BB1FEF718FD70
:104260002046BDE8F0870024F5E706EB8A04616884
:1042700056F82A20D1F80880D960C3F81080C8F811
:10428000040088609C613B68013246F82A20002BBC
:1042900085D1104B1A6812683AB9C2E70F4E56F82A
:1042A0002540003C18BF0124D5E71A680A4BD268A4
:1042B00012681A60B9E700BFB40B02209C0B022001
:1042C000980B02205F080020AC0B02203C0C02205F
:1042D0000C090020FC080020280C0220900C022071
:1042E000500C0220BC0B0220380C0220024B186834
:1042F00000B97047FFF72ABF500C0220F8B5D0E98B
:1043000001520027036941F0004101605968C46807
:104310008142AA60556008BF5A601A68D4E90361F7
:10432000013A07611A60A36904F108055A68B1608F
:10433000AA421A684E6008BF59601249013A1A60D1
:10434000236B0A689342104A88BF0B6003EB830318
:10435000980002EB830359688E68E16026617560FE
:104360008D601158A36101311150FFF759FD2046AE
:10437000FEF71EFC054B1B681BB1BDE8F840FEF7BD
:1043800087BCF8BDBC0B02200C090020500C022099
:104390002DE9F84F04464FF05047DFF894A00D4642
:1043A000204EFFF73DFDDAF80090D4F80480FDF7C9
:1043B0004BFF3B6856F823B0FDF752FF9BF879306E
:1043C00023BB2B685A1C18D0174A216810688142F9
:1043D00006D06168494503D800232B6001240DE015
:1043E000A9EB08018B42F7D91168A3EB0903DAF8AE
:1043F000002043442B60C4E9001200240B4B1B68CF
:104400000BB1FEF745FC2046BDE8F88FFDF71CFF19
:104410003B6856F82340FDF723FF002384F87930EA
:10442000DCE700BFF00800202C0C0220500C02201A
:10443000840C02201F4B186800B9704770B5FDF757
:1044400003FF4FF050421C4C136854F8231029B15D
:1044500054F82320013244F8232070BD1749D1E8D5
:10446000CF5F0126002D01D1C1E8456FBFF35F8FFB
:104470004DB9134D012213490A7005F813204FF06E
:1044800050431B68E4E70E4D15F813605EB9D1E8A0
:10449000CF6F0122002EFAD1C1E8462F002EF6D1AF
:1044A000BFF35F8FE6E707490B780133DBB20B7090
:1044B0001368CDE7500C0220A00B02205E080020FC
:1044C000980B02209C0B02201E4B1B68002B34D043
:1044D0004FF050411C4B0A6853F8220000282CD0A2
:1044E00053F82200013843F822000A6853F82230BA
:1044F0001BBB10B51549164B53F822400B78013BF6
:10450000DBB20B702BB9134800F81230124AC2E824
:104510008F3F4FF050424B781068013BDBB24B703D
:1045200033B90C4A0D4902EB40025370C1E88F3F8A
:104530000020FDF795FE0CB910BD7047BDE8104096
:10454000FDF7AEBC500C0220A00B02209C0B0220F9
:10455000900C0220980B02205E0800205F080020CB
:10456000134B1B6803B970474FF05041114B0A6859
:1045700010B453F82240C4B153F82240013C43F830
:1045800022400A6853F822307BB90B490B78013B73
:10459000DBB20B702BB9094C094904F81230C1E8A1
:1045A0008F3F5DF8044BFDF75BBE5DF8044B704731
:1045B000500C0220A00B02209C0B0220980B022022
:1045C0005E080020F8B54FF05046FDF73DFE0D4D5A
:1045D000336855F82340FDF743FEE769FDF734FEE5
:1045E000336855F82340FDF73BFE246BFDF72CFEA6
:1045F0003368C4F1200455F82350FDF731FE3846E6
:10460000EC61F8BDF00800202DE9F04FB74FDFF85E
:10461000E4B2DFF8E482B64D87B03B681C68002C3A
:1046200040F01D81FEF796FFFEF79CFFDBF800309F
:104630008146834248D8D8F80030CBF800001A6889
:10464000B2FA82F252092868A4EB0901FEF778FA5F
:10465000FFF74CFE002800F024810023CDE902334F
:10466000CDE904330022286802A9FEF753F9002897
:10467000D3D0029B0498002BC0F2E980DDF810A093
:10468000DAF814301BB10AF10400FDF759FFFEF708
:1046900069FFDBF800300190984243D3DDE9012344
:1046A000013BCBF80020082BDCD8DFE803F0616188
:1046B000C0A5C76161C0A50022F001028AF82820C8
:1046C0005046DAF8203098473B681A68002A00F014
:1046D000D880DA68D2F80CA014680AF104063046D3
:1046E000FDF72EFF9AF828205107E5D503E0504644
:1046F000DAF820209047DAF81820CAF810A011192B
:10470000A418CAF80410F2D33146D8F80000FDF717
:10471000FFFED5E721F0010189F828104846D9F8B5
:10472000203098473B681968002900F0B480D968A8
:10473000D1F80C900C6809F104063046FDF700FF33
:1047400099F828104807E5D503E04846D9F8201025
:104750008847D9F81810C9F8109008196418C9F8D2
:104760000400F2D33146D8F80000FDF7D1FED5E7BA
:104770009AF828000399DAF81840019A0B1940F0CA
:1047800001068AF828602CBF012600269342CAF849
:104790000430CAF810A000F28780511A8C423FD82A
:1047A000410712D420F001008AF828005046DAF8B8
:1047B0002030984756E78C4200F2C680DAF8203065
:1047C000504698473346DAF81840019AE6182CBF4D
:1047D00001200020B242A2EB0301CAF80460CAF82B
:1047E00010A0E8D29A4201D20028E7D038680AF136
:1047F0000401FDF78DFED9E70399019A9AF8283054
:10480000881843F0010390428AF82830CAF818103B
:10481000CAF80400CAF810A04BD800293FF422AF10
:10482000D8F800000AF10401FDF772FE1AE79AF8C1
:10483000283023F001038AF8283013E79AF828304B
:104840009A0777D523F001038AF828300AE7039BFB
:1048500005999847029B002BFFF604AF0EE7DB6833
:104860001C68FEF777FEFEF77DFEDBF80030814620
:1048700083423FF629AF8442CBF800001FD90022C3
:10488000E1E6D8F80020CBF800903A60C8F8003094
:10489000FFF72CFDE1E6D8F80010C8F800303960C9
:1048A000FCE6FFF7ABFAD8E6914202D9002E3FF4BE
:1048B00077AF38680AF10401FDF72AFED2E6FFF768
:1048C00015FD3B68DB68DE68331D18460193FDF774
:1048D00037FE96F82820530716D422F0010286F8F6
:1048E00028203046336A9847B7E600BFF808002012
:1048F000880C0220200C02200809002081421DD8CB
:104900003046316A88475446B169A9EB040014EB7C
:10491000010A2CBF01230023CA45C6F804A0366152
:10492000ECD94C4501D9002BEAD001993868FDF744
:10493000EFFDD6E7504600F01DF993E60199D8F84F
:104940000000FDF7E5FDCCE7D8F800000AF104010E
:10495000FDF7DEFD2AE700BFF0B5194C85B0FFF783
:104960005FFA25689DB1FFF7AFFD206868B14FF091
:10497000FF351F241349002302914FF48062CDE9D3
:10498000004511491148FFF769FB05B0F0BD104E15
:10499000104F3046FDF79EFD3846FDF79BFD0E4A51
:1049A0000E4B176010212A460A201E60FDF722FFD9
:1049B00020600028D7D00A49FEF72AF8D3E700BFC5
:1049C000880C02208C0C02205C4F0010094600105D
:1049D000C00B0220D40B022008090020F808002098
:1049E000544F00109C46F0B507460E4615466FF032
:1049F0000104074B85B06946624618680023CDE97B
:104A0000017603950094FDF735FF05B0F0BD00BFBA
:104A1000880C0220F8B504460D46EFF3108772B6F5
:104A20000C4B9B6853F82060B14204D00A4B9E4265
:104A30000BD2FCF7F5FC074B9B6843F82450BFF3FF
:104A40005F8F87F310883046F8BD044B9E42F2D347
:104A5000EFE700BF00ED00E0100100101C010010A6
:104A6000F8B5431E0A3311D810F0070300F108040B
:104A700067D0A3F10902A24208D31030C41AFEF78E
:104A800069FD354922460D681DBB0AE0FEF762FD4F
:104A900031490A6822B10025FFF728FC2846F8BDF5
:104AA00014462E4B2E4D58071CBF073323F0070327
:104AB0001E46002025F007050D602A49EB1AC1E9C2
:104AC00000602949C5E900000B60C6E90053274989
:104AD0000B60002ADFDD254F3E68A642DBD3214B69
:104AE00018461B6803E01A6822B118461346596835
:104AF000A142F8D3AB42CED01D46A1EB040C55F831
:104B0000082BBCF1100F026007D9214603EB040EFD
:104B1000CEF804C01A51C0F800E00024124A761AF8
:104B2000106841F000418642114838BF16600268A3
:104B3000596001321C603E600260FFF7D7FB2846D7
:104B4000F8BDFEF707FD044922460D68002DA8D0E8
:104B5000002CC0DA9FE700BF00090020980B00205E
:104B6000900B0220540C0220240C0220140C022072
:104B7000300C022090B338B550F8043C0446002BAA
:104B800000DB38BD50F8082C002AFAD123F000438E
:104B900040F8043CA0F10805FEF7DCFC1A4854F884
:104BA000041C0268194B0A4402601A461B689D42A5
:104BB000FBD8506802EB000C654510D068188342A2
:104BC0001DD044F8083CAA4218BF1560104A13686B
:104BD00001331360BDE83840FFF788BB70470144DC
:104BE000501883425160F1D10A4800689842EDD0D4
:104BF0001546D3E900400144C5E90041E3E7054813
:104C000000688342F5D1DCE7140C0220540C02202A
:104C1000340C022000090020830730B546D08418E8
:104C2000844604E003F8011B9D0704D09C46A4457C
:104C30006346F7D130BD013A0244A2EB0C02032ACD
:104C400029D9CCB20F2A04EB042404EB04442FD955
:104C5000A2F1100C03F110052CF00F0CAC44C3E9C9
:104C60000044C3E9024410336345F8D112F00C0F3D
:104C700002F00F0E18D02EF0030CAEF104051A4608
:104C80009C4442F8044B6245FBD125F003040433F5
:104C90000EF003022344002ACCD0C9B21A4403F810
:104CA000011B9342FBD130BD7246F4E70346C6E7D1
:104CB0009646E0E7844641EA000313F0030349D136
:104CC000403A23D30B6803604B6843608B68836072
:104CD000CB68C3600B6903614B6943618B69836176
:104CE000CB69C3610B6A03624B6A43628B6A83625E
:104CF000CB6AC3620B6B03634B6B43638B6B836346
:104D0000CB6BC36340304031403ADBD230320BD3FF
:104D10000B6803604B6843608B688360CB68C3603B
:104D200010301031103AF3D20C3205D351F8043B55
:104D300040F8043B043AF9D2043208D0D2071CBF31
:104D400011F8013B00F8013B01D30B88038060465A
:104D5000704700BF082A13D38B07B1D010F00303AC
:104D6000AED0C3F10403D21ADB071CBF11F8013B1C
:104D700000F8013BA4D331F8023B20F8023B9FE747
:104D8000043AD9D3013A11F8013B00F8013BF9D2BA
:104D90000B7803704B7843708B7883706046704754
:104DA00020F0030110F00300C0F1000051F8043BB3
:104DB00000F1040C4FEACC0C6FF000021CBF22FA89
:104DC0000CF213434FF0010C4CEA0C2C4CEA0C4C47
:104DD000A3EB0C0222EA030212EACC1204BF51F840
:104DE000043B0430F4D0C2F1000102EA0102B2FA3D
:104DF00082F2C2F11F0200EBD2007047F8B500BF8B
:104E00005FF800F0BD0100205FF800F0F101002024
:104E10005FF800F011010020F91400106D1400106B
:104E2000A114001045150010D9140010D113001062
:104E300021150010BD130010ED08001025150010FD
:104E4000650C00101D1400100D150010BD1400108D
:104E5000F50400101D05001019020010D5210010E6
:104E60007461736B300000007461736B310000007B
:104E70000A2A2A2A2050414E4943202A2A2A0A0077
:104E80000A0000005370696E6C6F636B202564200C
:104E9000697320616C726561647920636C61696D0E
:104EA00065640000486172647761726520616C61BD
:104EB000726D20256420616C726561647920636C79
:104EC00061696D65640000004861726420617373FC
:104ED0006572740052656C6561736500626F6F7412
:104EE000325F77323571303830000000302E3100BB
:104EF000322E312E310000007069636F32000000E5
:104F000074656172000000004A756E2032332032F1
:104F1000303235005541525420737464696E00007C
:104F200055415254207374646F7574005541525446
:104F300020737464696E202F207374646F7574001D
:104F40004E6F206672656520646F6F7262656C6C6F
:104F500073000000546D725100000000546D722007
:104F60005376630006005250D3F07542D44E0010C1
:104F700006005250E182887FDC4E0010060052503D
:104F80003ABCA911EC4E001006005250ABB360536E
:104F9000F04E001006005250BBFF3CB6F84E001019
:104FA00006005250861C0302004F001006005250AB
:104FB0005422A29D084F001005005250DE65F4688F
:104FC000A85500100D0A00000600525053B4F4A179
:104FD0002C4F0010080052501200000008005250E0
:084FE000921000001F00000008
:084FE800CCFCFF7F010000007A
:104FF000644F0010704F00107C4F0010884F00105D
:10500000944F0010A04F0010AC4F0010B84F00108C
:0C501000DC4F0010D44F0010C84F0010FF
:10501C002DE9F0411F46044616460368EFF310884D
:10502C0072B6D3E8CF1F01220029FAD1C3E8412F71
:10503C000029F6D1BFF35F8F45686B1C0CD00023A1
:10504C000268C2E88F3F88F3108800F04DFAA8423E
:10505C000ED10020BDE8F08100F046FA0023226852
:10506C006060C2E88F3F88F310880120BDE8F081B2
:10507C0000F03AFA804606E032463B46204600F005
:10508C002FFA0028E5D12568EFF3108172B6D5E828
:10509C00CF2F0123002AFAD1C5E8423F002AF6D1CE
:1050AC00BFF35F8F63680133E6D100232268C4F835
:1050BC000480C2E88F3F81F31088D6E700B5026800
:1050CC00EFF3108172B6D2E8CFEF5FF0010CBEF1B6
:1050DC00000FF8D1C2E84ECFBEF1000FF3D1BFF3F1
:1050EC005F8F4FF0FF325DF804EB426000F000BAC6
:1050FC007BB972B90029BEBF00204FF0004106E019
:10510C0008BF00281CBF6FF000414FF0FF3000F0CB
:10511C00E5B9ADF1080C6DE904CE002909DB002BD3
:10512C001ADB00F035F8DDF804E0DDE9022304B009
:10513C007047404261EB4101002B1BDB00F028F86B
:10514C00DDF804E0DDE9022304B0404261EB4101EB
:10515C00524263EB43037047524263EB430300F04C
:10516C0017F8DDF804E0DDE9022304B0404261EBFE
:10517C0041017047524263EB430300F009F8DDF83C
:10518C0004E0DDE9022304B0524263EB43037047B1
:10519C002DE9F04F8C46099E04460F46002B48D152
:1051AC008A4215465ED9B2FA82F33BB1C3F12002B2
:1051BC009F409D409C4020FA02F217434FEA154E47
:1051CC001FFA85FC220CB7FBFEF10EFB117701FBDD
:1051DC000CF042EA0742904207D9AA1801F1FF37B6
:1051EC0002D2904200F258813946121AA4B2B2FB94
:1051FC00FEF00EFB102200FB0CFC44EA0244A4451A
:10520C000BD92C1900F1FF322CBF01270027A44524
:10521C0002D9002F00F04381104640EA0140A4EB74
:10522C000C0400211EB1DC400023C6E90043BDE89C
:10523C00F08F8B4206D90EB1C6E900010021084659
:10524C00BDE8F08FB3FA83F1002951D16345C0F06A
:10525C001681824240F213810846002EE7D0C6E93F
:10526C000047E4E7002A00F0AF80B2FA82F3002B8B
:10527C0040F0C2808A1A4FEA154EAFB20121200CC1
:10528C00B2FBFEFC0EFB1C2240EA024207FB0CF0B8
:10529C0090420ED9AA180CF1FF382CBF4FF001091F
:1052AC004FF00009904203D9B9F1000F00F0F080E3
:1052BC00C446121AA4B2B2FBFEF00EFB102200FB85
:1052CC0007F744EA0244A7420ED92C1900F1FF3229
:1052DC002CBF4FF0010E4FF0000EA74203D9BEF1C8
:1052EC00000F00F0D2801046E41B40EA0C4099E716
:1052FC00C1F120058B400CFA01F400FA01F922FAF5
:10530C0005F72CFA05FC8A401F4320FA05F3380CEC
:10531C0023431FFA87FE1C0CBCFBF0F800FB18CCD7
:10532C0044EA0C4408FB0EFCA4450ED93C1908F1C8
:10533C00FF3A2CBF4FF0010B4FF0000BA44503D9E3
:10534C00BBF1000F00F0B880D046A4EB0C041FFAA0
:10535C0083FCB4FBF0F300FB134403FB0EFE4CEA9E
:10536C000444A6450ED93C1903F1FF302CBF4FF075
:10537C00010C4FF0000CA64503D9BCF1000F00F056
:10538C009F80034643EA0840A4EB0E04A0FB02EC0A
:10539C0064457346E04602D307D1F14505D2BEEB16
:1053AC0002036CEB070C0138E0465EB1B9EB03026B
:1053BC0064EB080404FA05F522FA01F3CC401D4312
:1053CC00C6E90054002132E742082F464B08AC4690
:1053DC0042EAC172AE46C407110C92B241EA0341D3
:1053EC0042EA0142B1FBF5F1B3FBF5F01F23A2EB4E
:1053FC000C0241EA004142E79D40C3F12002994072
:10540C009C402CFA02FC4FEA154E20FA02F2AFB285
:10541C00BCFBFEF80A430EFB18CC110C41EA0C4104
:10542C0008FB07FC8C4550D9691808F1FF302CBFDC
:10543C004FF001094FF000098C4502D9B9F1000F6A
:10544C0030D0A1EB0C01B1FBFEF808FB07FC0EFB06
:10545C00181192B242EA0142624534D2AA1808F1FC
:10546C00FF312CBF4FF001094FF000096245BED24D
:10547C00B9F1000FBBD1A8F102012A44B7E7841A95
:10548C006CEB030201201746E7E62C4402382BE7AD
:10549C00ACF1020C2A440CE702392A44A5E62C4450
:1054AC000238BAE6A5EB0C0CA8F102006144B1FB82
:1054BC00FEF808FB07FCCAE7A8F102083C4444E7E5
:1054CC00023B3C445EE7414691E7A1EB0C014046B0
:1054DC00B1FBFEF808FB07FCB9E700BF704700BF43
:1054EC005FF800F0E12000105FF800F0C11F001021
:1054FC005FF800F0512000101000000000000000C8
:10550C00000001000000000000000000000002008C
:10551C00000000000000000000000300000000007C
:10552C00000000000000FF000000000001B548680A
:10553C0001318E460047704609380149884701BD44
:10554C002508001000000000000000000000000012
:10555C000000000000000000880600202119001047
:10556C00291A001071190010391A001000000000DF
:10557C0000010000FFFF0000000000000000000020
:08558C00000000000000000017
:10559400D3DEFFFFFE010000FF010000A4ABFFFF0C
:0455A400793512AB98
:040000051000014D99
:00000001FF
